:0400000088EF0FF086
:10060000003F065B4F666D7D077F6F777C395E79B3
:1006100071000450800B0D6E045004240F6E03AE65
:1006200014EF03F016EF03F017EF03F00F800F50F5
:10063000D8B41DEF03F01FEF03F034EF03F00F28E1
:10064000D8A425EF03F027EF03F02FEF03F0000EFF
:10065000016E000E026E000E036E000E046E038E1D
:10066000000E046E3CEF03F0000E016E000E026EF1
:10067000000E036E000E046E0850800B0E6E0D50BF
:100680000E18D8B446EF03F048EF03F049EF03F03B
:100690000D8C085008240E6E07AE51EF03F053EF97
:1006A00003F054EF03F00E800E50D8B45AEF03F06D
:1006B0005CEF03F071EF03F00E28D8A462EF03F0B3
:1006C00064EF03F06CEF03F0000E056E000E066E93
:1006D000000E076E000E086E078E000E086E79EF92
:1006E00003F0000E056E000E066E000E076E000E83
:1006F000086E0F500E5CD8B080EF03F082EF03F06D
:10070000A9EF03F00DAC87EF03F089EF03F08BEF57
:1007100003F0800E0D1A0FC010F00EC00FF010C0C5
:100720000EF001C010F005C001F010C005F002C0CD
:1007300010F006C002F010C006F003C010F007C0B1
:1007400003F010C007F004C010F008C004F010C09F
:1007500008F0000E106E0F500EC009F00A6A095E14
:10076000000E0A5A0ABEBEEF03F00A5009E11A0E43
:10077000095CD8A0BEEF03F0C0EF03F0F7EF03F081
:100780000150021003100410D8A4C9EF03F0CCEFFD
:1007900003F0010ECDEF03F0000E106E000E016E9F
:1007A000000E026E000E036E000E046E0EC00FF0FF
:1007B00000EF04F010A0DFEF03F0E1EF03F0E7EF4C
:1007C00003F0D89010300109106EE9EF03F0D890D3
:1007D000103201A0EEEF03F0F0EF03F0F1EF03F0C1
:1007E000108E043404320332023201320F2A0E50CA
:1007F0000F5CD8A0FEEF03F000EF04F0DAEF03F097
:100800000DBC05EF04F007EF04F047EF04F00F50C4
:10081000D8A40DEF04F00FEF04F019EF04F0000E70
:10082000016E000E026E000E036E000E046E68EF85
:1008300005F00550012606500222075003220850F9
:10084000042204A026EF04F028EF04F0D4EF04F013
:1008500010A02DEF04F02FEF04F035EF04F0D89046
:1008600010300109106E37EF04F0D890103201A05B
:100870003CEF04F03EEF04F03FEF04F0108E043440
:1008800004320332023201320F2AD4EF04F0055051
:10089000015C06500258075003580450800A096E44
:1008A0000850800A0958D8B058EF04F05AEF04F005
:1008B00085EF04F00150055C096E025006580A6E7F
:1008C000035007580B6E045008580C6EFF0E092495
:1008D000016EFF0E0A20026EFF0E0B20036EFF0E4C
:1008E0000C20046E800E0D1A106C1050D8A47BEFF3
:1008F00004F07DEF04F08DEF04F0010E0126000EF0
:100900000222032204228DEF04F00550015E0650FE
:10091000025A0750035A0850045A0150021003109B
:100920000410D8A496EF04F098EF04F0CDEF04F093
:100930001050D8A49EEF04F0A0EF04F0CDEF04F027
:10094000000E016E000E026E000E036E000E046EAD
:1009500068EF05F0D890013602360336043610AE43
:10096000B4EF04F0B6EF04F0B7EF04F0018010A08C
:10097000BCEF04F0BEEF04F0C2EF04F0D8801036F4
:10098000C4EF04F0D89010360F50D8B4CAEF04F07A
:10099000CCEF04F0CDEF04F00F0603AED2EF04F07D
:1009A000D4EF04F0AAEF04F0000E0E6E10AEDBEFF1
:1009B00004F0DDEF04F0F5EF04F010C009F07F0E55
:1009C0000916D8B4E6EF04F0E8EF04F0ECEF04F019
:1009D000010E0E6EF5EF04F001A0F1EF04F0F3EF5D
:1009E00004F0F5EF04F0E8EF04F00E50D8B4FBEF9C
:1009F00004F0FDEF04F028EF05F0010E0126000ED3
:100A000002220322042204A008EF05F00AEF05F0F9
:100A100028EF05F001C009F002C00AF003C00BF096
:100A200004C00CF00C340C320B320A32093209C00B
:100A300001F00AC002F00BC003F00CC004F00F2854
:100A4000D8B425EF05F027EF05F028EF05F00F2AC1
:100A50000F28D8B42EEF05F030EF05F038EF05F091
:100A60000F50D8A436EF05F038EF05F04AEF05F047
:100A7000000E016E000E026E000E036E000E046E7C
:100A80000F50D8A446EF05F048EF05F04AEF05F007
:100A9000000E0D6E0FA04FEF05F051EF05F054EF73
:100AA00005F0038E55EF05F0039ED8900F30046ECD
:100AB0000DAE5DEF05F05FEF05F060EF05F0048E21
:100AC00001C001F002C002F003C003F004C004F052
:100AD000120002BE77EF05F0025007E1080E015C3C
:100AE000D8B075EF05F077EF05F0A1EF05F00350F2
:100AF0000410D8B47EEF05F080EF05F090EF05F01C
:100B000001C005F0010E066E052A89EF05F0D890A8
:100B10000636052E87EF05F0065092128FEF06F08D
:100B200001C005F0010E066E052A99EF05F0D89078
:100B30000636052E97EF05F00650FF0A92168FEF46
:100B400006F002BEAFEF05F0025007E1100E015CA7
:100B5000D8B0ADEF05F0AFEF05F0DDEF05F00350D5
:100B60000410D8B4B6EF05F0B8EF05F0CAEF05F001
:100B700001C005F0F80E0526010E066E052AC3EF2A
:100B800005F0D8900636052EC1EF05F006509312F9
:100B90008FEF06F001C005F0F80E0526010E066E77
:100BA000052AD5EF05F0D8900636052ED3EF05F0CF
:100BB0000650FF0A93168FEF06F002BEEBEF05F02A
:100BC000025007E1180E015CD8B0E9EF05F0EBEF39
:100BD00005F019EF06F003500410D8B4F2EF05F059
:100BE000F4EF05F006EF06F001C005F0F00E052663
:100BF000010E066E052AFFEF05F0D8900636052E89
:100C0000FDEF05F0065094128FEF06F001C005F0DD
:100C1000F00E0526010E066E052A11EF06F0D8909B
:100C20000636052E0FEF06F00650FF0A94168FEFDA
:100C300006F002BE27EF06F0025007E1200E015C2D
:100C4000D8B025EF06F027EF06F055EF06F0035079
:100C50000410D8B42EEF06F030EF06F042EF06F0A5
:100C600001C005F0E80E0526010E066E052A3BEFD1
:100C700006F0D8900636052E39EF06F0065095128C
:100C80008FEF06F001C005F0E80E0526010E066E96
:100C9000052A4DEF06F0D8900636052E4BEF06F0EC
:100CA0000650FF0A95168FEF06F002BE63EF06F0BE
:100CB000025007E1280E015CD8B061EF06F063EF47
:100CC00006F08FEF06F003500410D8B46AEF06F078
:100CD0006CEF06F07EEF06F001C005F0E00E052691
:100CE000010E066E052A77EF06F0D8900636052E1F
:100CF00075EF06F0065096128FEF06F001C005F072
:100D0000E00E0526010E066E052A89EF06F0D89042
:100D10000636052E87EF06F00650FF0A96161200DB
:100D200002BE9EEF06F0025007E1080E015CD8B04B
:100D30009CEF06F09EEF06F0C8EF06F0035004109B
:100D4000D8B4A5EF06F0A7EF06F0B7EF06F001C0A4
:100D500005F0010E066E052AB0EF06F0D8900636B3
:100D6000052EAEEF06F006508012B6EF07F001C078
:100D700005F0010E066E052AC0EF06F0D890063683
:100D8000052EBEEF06F00650FF0A8016B6EF07F0FC
:100D900002BED6EF06F0025007E1100E015CD8B09B
:100DA000D4EF06F0D6EF06F004EF07F0F80E0126B8
:100DB000FF0E022203500410D8B4E1EF06F0E3EF77
:100DC00006F0F3EF06F001C005F0010E066E052AED
:100DD000ECEF06F0D8900636052EEAEF06F0065046
:100DE0008112B6EF07F001C005F0010E066E052A6C
:100DF000FCEF06F0D8900636052EFAEF06F0065006
:100E0000FF0A8116B6EF07F002BE12EF07F002509C
:100E100007E1180E015CD8B010EF07F012EF07F0F1
:100E200040EF07F0F00E0126FF0E022203500410DF
:100E3000D8B41DEF07F01FEF07F02FEF07F001C048
:100E400005F0010E066E052A28EF07F0D890063649
:100E5000052E26EF07F006508212B6EF07F001C00C
:100E600005F0010E066E052A38EF07F0D890063619
:100E7000052E36EF07F00650FF0A8216B6EF07F090
:100E800002BE4EEF07F0025007E1200E015CD8B021
:100E90004CEF07F04EEF07F07CEF07F0E80E01266D
:100EA000FF0E022203500410D8B459EF07F05BEF95
:100EB00007F06BEF07F001C005F0010E066E052A82
:100EC00064EF07F0D8900636052E62EF07F0065063
:100ED0008312B6EF07F001C005F0010E066E052A79
:100EE00074EF07F0D8900636052E72EF07F0065023
:100EF000FF0A8316B6EF07F002BE8AEF07F0025032
:100F000007E1280E015CD8B088EF07F08AEF07F000
:100F1000B6EF07F0E00E0126FF0E02220350041088
:100F2000D8B495EF07F097EF07F0A7EF07F001C0EF
:100F300005F0010E066E052AA0EF07F0D8900636E0
:100F4000052E9EEF07F006508412B6EF07F001C0A1
:100F500005F0010E066E052AB0EF07F0D8900636B0
:100F6000052EAEEF07F00650FF0A84161200000EA1
:100F7000156E000E146E5DEF08F014C001F015C080
:100F800002F0000E046E640E036E6BEC0CF001C0F8
:100F90001AF002C01BF01BBED7EF07F01B5009E18F
:100FA0000A0E1A5CD8A0D7EF07F0D9EF07F0F9EFD7
:100FB00007F0020E096E1AC001F01BC002F0000E0D
:100FC000046E0A0E036E6BEC0CF001505CEC0FF03B
:100FD000030E096E1AC001F01BC002F0000E046E71
:100FE0000A0E036E25EC0DF001505CEC0FF003EFE0
:100FF00008F0020E096E000E5CEC0FF0030E096E95
:101000001A505CEC0FF027EC0AF0000E166E000E82
:10101000176E000E186E000E196E16C001F017C084
:1010200002F018C003F019C004F0000E056E000EA7
:10103000066EC80E076E420E086EE9EC0BF0D8A0E3
:1010400024EF08F026EF08F028EF08F05BEF08F037
:1010500016C001F017C002F018C003F019C004F068
:10106000000E056E000E066E800E076E3F0E086EB7
:1010700009EC03F001C016F002C017F003C018F02D
:1010800004C019F016C001F017C002F018C003F038
:1010900019C004F0000E056E000E066EC80E076E35
:1010A000420E086EE9EC0BF0D8A059EF08F05BEFA8
:1010B00008F028EF08F0144A152A11C001F012C0F8
:1010C00002F0000E046E640E036E88EC10F0010E48
:1010D0000126000E02221450015C0250800A136E99
:1010E0001550800A1358D8B078EF08F07AEF08F05E
:1010F000BDEF07F0000E026E020E016E000E046ED0
:10110000000E036E90EC06F0000E026E030E016EF0
:10111000000E046E000E036E90EC06F0000E026EE0
:10112000040E016E000E046E000E036E90EC06F0CD
:10113000000E026E050E016E000E046E000E036EB0
:1011400090EC06F01200000E586E100E576EB3ECC5
:101150000FF04AEC0EF0D1EC10F0A9EC10F00F0EED
:10116000CCEC0DF0CDEC0CF0CFEC0AF06AEC09F011
:10117000CCEC10F05750011809E158500218D8B4BF
:10118000C4EF08F0C6EF08F0B6EF08F0CCEC10F0B2
:1011900001C057F002C058F057A6D1EF08F0D3EFC6
:1011A00008F0E0EF08F0010ECCEC0DF008EC10F0C8
:1011B000000E126E1E0E116EB7EC07F02CEC0FF045
:1011C00057AEE5EF08F0E7EF08F0FEEF08F0010E8C
:1011D000CCEC0DF008EC10F0000E126E0A0E116E41
:1011E000B7EC07F07DEC0DF008EC10F0000E126E7D
:1011F0000A0E116EB7EC07F02CEC0FF058A603EFB7
:1012000009F005EF09F02CEF09F0010ECCEC0DF020
:1012100020EE90F010EE37F00F0EDBCFE3FFE80684
:10122000FCE2800ECCEC0DF0000E786E0F0E7864B0
:101230001CEF09F01EEF09F020EF09F02CEF09F088
:10124000370E7824D96EDA6A000EDA22DF50DEEC2F
:101250000FF0782A16EF09F058A031EF09F033EFBC
:1012600009F03AEF09F0010ECCEC0DF0CDEC0CF0EA
:10127000CFEC0AF057A03FEF09F041EF09F0B6EFCD
:1012800008F0010ECCEC0DF020EE80F010EE47F0EF
:101290000F0EDBCFE3FFE806FCE2800ECCEC0DF096
:1012A000000E786E0F0E786458EF09F05AEF09F0CF
:1012B0005CEF09F0B6EF08F0470E7824D96EDA6AD1
:1012C000000EDA22DF50DEEC0FF0782A52EF09F040
:1012D00000EF00F083CF06F00F0E9512000E0A6E9D
:1012E000F80E93160AC001F0010E026E012A7BEF80
:1012F00009F0D8900236012E79EF09F002509312CE
:10130000070E81120AC001F0010E026E012A8BEF56
:1013100009F0D8900236012E89EF09F00250FF0A39
:101320008116000E086E000E076E074A082A08BED6
:10133000A3EF09F0085009E10A0E075CD8A0A3EF5B
:1013400009F0A5EF09F095EF09F0000E096E09C04C
:1013500001F0010E026E012AB0EF09F0D8900236BA
:10136000012EAEEF09F0025083140009D8A4BBEFA0
:1013700009F0BDEF09F0D5EF09F00A50040DF35064
:101380000924016E010E026E000E036E012ACCEFDD
:1013900009F0D89002360336012EC9EF09F0025049
:1013A0006E1203506F12EFEF09F00A50040DF35064
:1013B0000924016E010E026E000E036E012AE4EF95
:1013C00009F0D89002360336012EE1EF09F0021C35
:1013D000046E031C056E04506E1605506F16092A24
:1013E000030E0964F6EF09F0F8EF09F0A7EF09F032
:1013F0000A2A020E0A64FFEF09F001EF0AF070EF0B
:1014000009F06E506C1807E16F506D18D8A40BEFFF
:101410000AF00DEF0AF010EF0AF0770616EF0AF067
:101420000A0E776E6EC06CF06FC06DF07750D8A466
:101430001CEF0AF01EEF0AF022EF0AF06CC070F009
:101440006DC071F006C083FF000E956E1200000E95
:10145000956E000E026E020E016E000E046E000EFE
:10146000036E90EC06F0000E026E030E016E000E8D
:10147000046E000E036E90EC06F0000E026E040E79
:10148000016E000E046E000E036E90EC06F0000E6E
:10149000026E050E016E000E046E000E036E90ECDF
:1014A00006F0000E836EB1EF0AF0010E7524F66EA1
:1014B000F76A060EF7220800F5CF83FF000E026ED2
:1014C000020E016E000E046E010E036E90EC06F02B
:1014D000010E766ECEEF0AF0010E7424F66EF76AF6
:1014E000060EF7220800F5CF83FF000E026E030EF2
:1014F000016E000E046E010E036E90EC06F0020EFB
:10150000766ECEEF0AF0010E7324F66EF76A060EC1
:10151000F7220800F5CF83FF000E026E040E016E65
:10152000000E046E010E036E90EC06F0030E766E54
:10153000CEEF0AF0010E7224F66EF76A060EF7225D
:101540000800F5CF83FF000E026E050E016E000E3F
:10155000046E010E036E90EC06F0000E766ECEEF78
:101560000AF07650076E086A0850000AD8B4BBEF3C
:101570000AF0ADEF0AF00750000AD8B455EF0AF0B0
:10158000010AD8B46CEF0AF0030AD8B483EF0AF06A
:10159000010AD8B49AEF0AF0ADEF0AF01200010E7A
:1015A000CCEC0DF020EEC0F010EE09F00E0EDBCF0B
:1015B000E3FFE806FCE220EE59F010EE24F0090EFD
:1015C000DBCFE3FFE806FCE220EE63F010EE2EF046
:1015D000080EDBCFE3FFE806FCE220EECFF010EED2
:1015E00018F00B0EDBCFE3FFE806FCE2800ECCEC3C
:1015F0000DF0000E786E0E0E786401EF0BF003EF25
:101600000BF005EF0BF011EF0BF0090E7824D96EFB
:10161000DA6A000EDA22DF50DEEC0FF0782AFBEFF8
:101620000AF0C00ECCEC0DF0000E786E090E786456
:101630001CEF0BF01EEF0BF020EF0BF02CEF0BF07C
:10164000240E7824D96EDA6A000EDA22DF50DEEC3E
:101650000FF0782A16EF0BF0900ECCEC0DF0000E88
:10166000786E080E786437EF0BF039EF0BF03BEF34
:101670000BF047EF0BF02E0E7824D96EDA6A000ECD
:10168000DA22DF50DEEC0FF0782A31EF0BF0D00ECB
:10169000CCEC0DF0000E786E0B0E786452EF0BF070
:1016A00054EF0BF056EF0BF062EF0BF0180E7824AE
:1016B000D96EDA6A000EDA22DF50DEEC0FF0782AFB
:1016C0004CEF0BF01200000E0A6E08BE6CEF0BF030
:1016D0006AEF0BF076EF0BF0081E071E061E056C76
:1016E000000E062207220822010E0A6E04BE7DEFBC
:1016F0000BF07BEF0BF087EF0BF0041E031E021EB6
:10170000016C000E022203220422010E0A1A000EAE
:101710000B6E000E0C6E000E0D6E000E0E6E055060
:10172000061007100810D8B498EF0BF09AEF0BF0E2
:10173000D0EF0BF0010E096EA4EF0BF0D890053638
:10174000063607360836092A08AEA9EF0BF0ABEFCC
:101750000BF09EEF0BF0D8900B360C360D360E3694
:101760000550015C065002580750035808500458B1
:10177000D8A0BDEF0BF0BFEF0BF0C8EF0BF005509A
:10178000015E0650025A0750035A0850045A0B8053
:10179000D8900832073206320532092EABEF0BF033
:1017A0000A50D8B4D6EF0BF0D8EF0BF0E0EF0BF007
:1017B0000E1E0D1E0C1E0B6C000E0C220D220E2296
:1017C0000BC001F00CC002F00DC003F00EC004F01D
:1017D0001200000E0114096E000E02140A6E800E33
:1017E00003140B6E7F0E04140C6E09500A100B10BC
:1017F0000C10D8A4FEEF0BF000EF0CF008EF0CF08B
:10180000000E016E000E026E000E036E000E046EDE
:10181000000E0514096E000E06140A6E800E0714E1
:101820000B6E7F0E08140C6E09500A100B100C1072
:10183000D8A41DEF0CF01FEF0CF027EF0CF0000EFA
:10184000056E000E066E000E076E000E086E04AEEA
:101850002CEF0CF02EEF0CF037EF0CF0016C021EA9
:10186000D8B0022A031ED8B0032A800E045608AE50
:101870003CEF0CF03EEF0CF047EF0CF0056C061E51
:10188000D8B0062A071ED8B0072A800E0856000EC8
:10189000011A000E021A000E031A800E041A000E1E
:1018A000051A000E061A000E071A800E081A0550B7
:1018B000015C065002580750035808500458D8B02D
:1018C00064EF0CF066EF0CF069EF0CF0D8906AEF63
:1018D0000CF0D8801200000E066E04BE74EF0CF0FF
:1018E00072EF0CF07AEF0CF0036C041ED8B0042AEF
:1018F000010E066E02BE81EF0CF07FEF0CF087EF59
:101900000CF0016C021ED8B0022A010E061A000E5D
:10191000086E000E076E03500410D8B492EF0CF05E
:1019200094EF0CF0BCEF0CF0010E056E9CEF0CF088
:10193000D89003360436052A04AEA1EF0CF0A3EFCD
:101940000CF098EF0CF0D890073608360350015C85
:1019500004500258D8A0AFEF0CF0B1EF0CF0B6EF86
:101960000CF00350015E0450025A0780D8900432F4
:101970000332052EA3EF0CF00650D8B4C2EF0CF0E2
:10198000C4EF0CF0C8EF0CF0076C081ED8B0082AA2
:1019900007C001F008C002F01200010ECCEC0DF0FF
:1019A00020EEDBF010EE1DF00B0EDBCFE3FFE806C0
:1019B000FCE220EEB0F010EE0DF00F0EDBCFE3FFF7
:1019C000E806FCE2C00ECCEC0DF0000E786E0B0EBB
:1019D0007864EDEF0CF0EFEF0CF0F1EF0CF0FDEFB1
:1019E0000CF01D0E7824D96EDA6A000EDA22DF5070
:1019F000DEEC0FF0782AE7EF0CF0900ECCEC0DF057
:101A0000000E786E0C0E786408EF0DF00AEF0DF002
:101A10000CEF0DF018EF0DF00D0E7824D96EDA6A88
:101A2000000EDA22DF50DEEC0FF0782A02EF0DF024
:101A30005EEC10F0010E0A6E900E096E000E0C6E38
:101A4000000E0B6EF6EC0EF01200000E066E02BEDB
:101A50002EEF0DF02CEF0DF034EF0DF0016C021EA7
:101A6000D8B0022A010E066E04BE3BEF0DF039EF2E
:101A70000DF03FEF0DF0036C041ED8B0042A0350A4
:101A80000410D8B446EF0DF048EF0DF06CEF0DF0F8
:101A9000010E056E50EF0DF0D89003360436052A7E
:101AA00004AE55EF0DF057EF0DF04CEF0DF0035075
:101AB000015C04500258D8A060EF0DF062EF0DF009
:101AC00066EF0DF00350015E0450025AD8900432C4
:101AD0000332052E57EF0DF00650D8B472EF0DF01B
:101AE00074EF0DF078EF0DF0016C021ED8B0022AF1
:101AF00001C001F002C002F01200010ECCEC0DF0AA
:101B0000630EC0EC0EF0030E106EE80E0F6E75EC57
:101B100010F020EEA0F010EE11F00F0EDBCFE3FF7F
:101B2000E806FCE2800ECCEC0DF0000E786E0E0E96
:101B300078649DEF0DF09FEF0DF0A1EF0DF0ADEF8C
:101B40000DF0110E7824D96EDA6A000EDA22DF5019
:101B5000DEEC0FF0782A97EF0DF0010E0A6E900E72
:101B6000096E000E0C6E000E0B6EF6EC0EF030ECF3
:101B700010F047EC10F030EC10F047EC10F0000ED5
:101B8000C0EC0EF0000E106E000E0F6E75EC10F033
:101B9000010ECCEC0DF01200086E83CF07F0000EA2
:101BA000956E000E026E220E016E000E046E000E87
:101BB000036E90EC06F008C083FF000E026E210E4B
:101BC000016E000E046E010E036E90EC06F0000E26
:101BD000026E210E016E000E046E000E036E90EC7C
:101BE00006F007C083FF020E0818D8B4FAEF0DF014
:101BF000FCEF0DF004EF0EF00804D8A402EF0EF095
:101C000004EF0EF008EF0EF09BEC10F00AEF0EF070
:101C1000B6EC10F012004F6272696761646F205079
:101C2000726F66000000566F6365204E616F20651D
:101C300020427275786F504F55534F20454D455295
:101C400047454E4349414F74686F6E2043494120D8
:101C5000566F6F0000004573636F6C686120756D8F
:101C600020766F6F3A33202D20486F67776172744A
:101C70007342656D2056696E646F20616F566F63A5
:101C80006520436865676F755669616A616E646F48
:031C90002E2E2EC7
:101C9400000E026E220E016E000E046E000E036E24
:101CA40069EC05F0000E026E210E016E000E046E4A
:101CB400000E036E69EC05F0000E956E9BEC10F0BF
:101CC4009BEC10F09BEC10F09BEC10F09BEC10F0F4
:101CD400380ECCEC0DF09BEC10F09BEC10F0380EB1
:101CE400CCEC0DF09BEC10F0380ECCEC0DF0380E73
:101CF400CCEC0DF0060ECCEC0DF00C0ECCEC0DF093
:101D0400010ECCEC0DF01200000E066E000E056EF6
:101D140003500410D8B491EF0EF093EF0EF0BBEF24
:101D24000EF0010E076E9BEF0EF0D89003360436CA
:101D3400072A04AEA0EF0EF0A2EF0EF097EF0EF01C
:101D4400D890053606360350015C04500258D8A0DA
:101D5400AEEF0EF0B0EF0EF0B5EF0EF00350015EF3
:101D64000450025A0580D89004320332072EA2EFA1
:101D74000EF005C001F006C002F012000A6E010E5A
:101D8400CB24016E026A000E02220AC003F0046A28
:101D940088EC10F001C00BF002C00CF00BC001F095
:101DA4000CC002F0000E046E190E036E86EC0EF0E9
:101DB40001C00BF002C00CF0FF0E0B16030E0C1644
:101DC4000BC008F00CC009F0D89009320832D89042
:101DD400093208320850BE6E0BC008F0030E081614
:101DE4000838F00BBD121200000E786E040E7864F1
:101DF400FEEF0EF000EF0FF002EF0FF00AEF0FF01E
:101E04005EEC10F01C0ECCEC0DF0782AF8EF0EF01E
:101E14000B040C10D8A411EF0FF013EF0FF015EF13
:101E24000FF02BEF0FF0000E786E040E78641DEFA8
:101E34000FF01FEF0FF021EF0FF029EF0FF05EEC22
:101E440010F0180ECCEC0DF0782A17EF0FF05EECC2
:101E540010F01200010ECCEC0DF020EEE7F010EEC5
:101E640009F00A0EDBCFE3FFE806FCE2800ECCECBF
:101E74000DF0000E786E0A0E786443EF0FF045EF14
:101E84000FF047EF0FF053EF0FF0090E7824D96EDF
:101E9400DA6A000EDA22DF50DEEC0FF0782A3DEF2A
:101EA4000FF05EEC10F05EEC10F05EEC10F05EEC07
:101EB40010F012000A6E0950D8A463EF0FF065EF1A
:101EC4000FF067EF0FF00AC075F00904D8A46DEFA6
:101ED4000FF06FEF0FF071EF0FF00AC074F0020E05
:101EE4000918D8A478EF0FF07AEF0FF07CEF0FF019
:101EF4000AC073F0030E0918D8A483EF0FF085EF1E
:101F04000FF087EF0FF00AC072F01200160EF66E93
:101F14001C0EF76E000EF86E00EE80F010EE7DF0F1
:101F24000900F5CFEEFFE550E150FAE1840EF66EBC
:101F3400210EF76E000EF86E00EE59F010EE13F05D
:101F44000900F5CFEEFFE550E150FAE100EE6CF048
:101F54000D0EEE6AE806FDE1000EF86E0001A3EF37
:101F640008F0000E026E020E016E000E046E000EEA
:101F7400036E69EC05F0000E026E030E016E000E96
:101F8400046E000E036E69EC05F0000E026E040E82
:101F9400016E000E046E000E036E69EC05F0000E77
:101FA400026E050E016E000E046E000E036E69ECE7
:101FB40005F0000E956E1200076E83CF08F0000E38
:101FC400956E000E026E220E016E000E046E010E5E
:101FD400036E90EC06F007C083FF000E026E210E24
:101FE400016E000E046E010E036E90EC06F0000EFE
:101FF400026E210E016E000E046E000E036E90EC54
:1020040006F008C083FFB6EC10F01200010ECCEC11
:102014000DF020EEF2F010EE09F00A0EDBCFE3FF34
:10202400E806FCE2800ECCEC0DF0000E786E090E92
:1020340078641FEF10F021EF10F023EF10F02FEF72
:1020440010F0090E7824D96EDA6A000EDA22DF5015
:10205400DEEC0FF0782A19EF10F012005EEC10F0AD
:10206400810E046E000E036E5EEC10F004C083FF5C
:1020740004500424046E032A070E036444EF10F092
:1020840046EF10F036EF10F012005EEC10F0800E08
:10209400046E000E036E5EEC10F004C083FFD89053
:1020A4000430046E032A070E03645BEF10F05DEF47
:1020B40010F04DEF10F01200000E016E000E026ED3
:1020C400022A0228D8A469EF10F06BEF10F062EF37
:1020D40010F0012A0128D8A472EF10F074EF10F068
:1020E40060EF10F01200480E016EE80E026E010E51
:1020F400036E000E046E0FC005F010C006F0076AF0
:10210400086A63EC0BF00104CB6E12000150030269
:10211400F3CF05F0F4CF06F001500402F350062685
:1021240002500302F350062605C001F006C002F077
:102134001200000E026EB6EC10F0022A310E026498
:10214400A6EF10F0A8EF10F09DEF10F01200949499
:10215400030ECA12CA840C0EBD6E000E106E640EFD
:102164000F6E75EC10F01200000E016E012A180EAD
:102174000164BFEF10F0C1EF10F0B8EF10F01200DF
:1021840031202D204469736E657932202D205061F1
:03219400726973FA
:1021980070C001F071C002F01200070E93160F0E06
:0421A800951212007A
:020000040020DA
:08000000FFFFFFFFFFFFFFFF00
:020000040030CA
:0E000000FF027100FF8380FF0FC00FE00F4072
:00000001FF
